:100000006F10902C6F00C00800000000000000007E
:10001000F9A0000000000000000000000000000047
:1000200011A200000000000000000000000000001D
:100030002DAA0000000000000000000000000000E9
:1000400000000000B5A200007DA20000000000003A
:1000500000000000000000000000000099A900005E
:1000600041A60000E1AA000029AC0000B1AC0000EC
:1000700079AC0000C5A400000DA600006DA600002C
:10008000F5A600001300000013000000130000009C
:10009000197106C00AC20EC412C616C81ACA1ECCEE
:1000A00022CE26D02AD22ED432D636D83ADA3EDC28
:1000B00042DEC6C0CAC2CEC4D2C6D6C8DACADECCF8
:1000C000E2CEE6D0EAD2EED4F2D6F6D8FADAFEDC08
:1000D00073252034F3251034EF00707131A91971A4
:1000E00006C00AC20EC412C616C81ACA1ECC22CE38
:1000F00026D02AD22ED432D636D83ADA3EDC42DEA8
:10010000C6C0CAC2CEC4D2C6D6C8DACADECCE2CE17
:10011000E6D0EAD2EED4F2D6F6D8FADAFEDCEF0078
:100120001069D9AE197106C00AC20EC412C616C82B
:100130001ACA1ECC22CE26D02AD22ED432D636D8F7
:100140003ADA3EDC42DEC6C0CAC2CEC4D2C6D6C887
:10015000DACADECCE2CEE6D0EAD2EED4F2D6F6D8D7
:10016000FADAFEDCEF00F05C41AE197106C00AC29B
:100170000EC412C616C81ACA1ECC22CE26D02AD247
:100180002ED432D636D83ADA3EDC42DEC6C0CAC2F7
:10019000CEC4D2C6D6C8DACADECCE2CEE6D0EAD227
:1001A000EED4F2D6F6D8FADAFEDCEF00D06EA9A6CD
:1001B000197106C00AC20EC412C616C81ACA1ECCCD
:1001C00022CE26D02AD22ED432D636D83ADA3EDC07
:1001D00042DEC6C0CAC2CEC4D2C6D6C8DACADECCD7
:1001E000E2CEE6D0EAD2EED4F2D6F6D8FADAFEDCE7
:1001F000EF00B06A11A6197106C00AC20EC412C679
:1002000016C81ACA1ECC22CE26D02AD22ED432D656
:1002100036D83ADA3EDC42DEC6C0CAC2CEC4D2C646
:10022000D6C8DACADECCE2CEE6D0EAD2EED4F2D636
:10023000F6D8FADAFEDCEF0030667DAC197106C044
:100240000AC20EC412C616C81ACA1ECC22CE26D0A6
:100250002AD22ED432D636D83ADA3EDC42DEC6C0B6
:10026000CAC2CEC4D2C6D6C8DACADECCE2CEE6D086
:10027000EAD2EED4F2D6F6D8FADAFEDCEF10605607
:10028000A5AC197106C00AC20EC412C616C81ACA95
:100290001ECC22CE26D02AD22ED432D636D83ADA66
:1002A0003EDC42DEC6C0CAC2CEC4D2C6D6C8DACA96
:1002B000DECCE2CEE6D0EAD2EED4F2D6F6D8FADA46
:1002C000FEDCEF00D05D0DAC197106C00AC20EC491
:1002D00012C616C81ACA1ECC22CE26D02AD22ED4B6
:1002E00032D636D83ADA3EDC42DEC6C0CAC2CEC406
:1002F000D2C6D6C8DACADECCE2CEE6D0EAD2EED496
:10030000F2D6F6D8FADAFEDCEF009059F5A21971B0
:1003100006C00AC20EC412C616C81ACA1ECC22CE05
:1003200026D02AD22ED432D636D83ADA3EDC42DE75
:10033000C6C0CAC2CEC4D2C6D6C8DACADECCE2CEE5
:10034000E6D0EAD2EED4F2D6F6D8FADAFEDCEF0046
:1003500050555DA2197106C00AC20EC412C616C855
:100360001ACA1ECC22CE26D02AD22ED432D636D8C5
:100370003ADA3EDC42DEC6C0CAC2CEC4D2C6D6C855
:10038000DACADECCE2CEE6D0EAD2EED4F2D6F6D8A5
:10039000FADAFEDCEF00105185A2197106C00AC21C
:1003A0000EC412C616C81ACA1ECC22CE26D02AD215
:1003B0002ED432D636D83ADA3EDC42DEC6C0CAC2C5
:1003C000CEC4D2C6D6C8DACADECCE2CEE6D0EAD2F5
:1003D000EED4F2D6F6D8FADAFEDCEF00D04C29AA39
:1003E000197106C00AC20EC412C616C81ACA1ECC9B
:1003F00022CE26D02AD22ED432D636D83ADA3EDCD5
:1004000042DEC6C0CAC2CEC4D2C6D6C8DACADECCA4
:10041000E2CEE6D0EAD2EED4F2D6F6D8FADAFEDCB4
:10042000EF00D047D1A8197106C00AC20EC412C687
:1004300016C81ACA1ECC22CE26D02AD22ED432D624
:1004400036D83ADA3EDC42DEC6C0CAC2CEC4D2C614
:10045000D6C8DACADECCE2CEE6D0EAD2EED4F2D604
:10046000F6D8FADAFEDCEF00504479A0197106C024
:100470000AC20EC412C616C81ACA1ECC22CE26D074
:100480002AD22ED432D636D83ADA3EDC42DEC6C084
:10049000CAC2CEC4D2C6D6C8DACADECCE2CEE6D054
:1004A000EAD2EED4F2D6F6D8FADAFEDCEF0010404B
:1004B000A1A0197106C00AC20EC412C616C81ACA73
:1004C0001ECC22CE26D02AD22ED432D636D83ADA34
:1004D0003EDC42DEC6C0CAC2CEC4D2C6D6C8DACA64
:1004E000DECCE2CEE6D0EAD2EED4F2D6F6D8FADA14
:1004F000FEDCEF00D03B09A082401241A241324213
:10050000C2425243E243724482541255A2553256BB
:10051000C2565257E257725886481649A649364A7B
:10052000C64A564BE64B764C865C165DA65D365E3B
:10053000C65E565FE65F0961730020300000000070
:100540006F10C03F8280411122C42A8426C24AC053
:1005500006C60CC0AE8450C11389050826858145A6
:100560009104EF10C052E39B24FF5C400547638178
:10057000E702B9C309476392E70808402244B24042
:1005800092440249FD551305050841016F10404989
:100590000840C1649385F4FF13050508EF10804BF4
:1005A00008402244B24002499385F4FF9244130567
:1005B000450841016F10004A08409305F00F1305EC
:1005C0000508EF10C04C08409305F00F13054508CF
:1005D000EF10E04B08409305F00F13058508EF106E
:1005E000004B08402244B240924402499305F00F68
:1005F0001305C50841016F1080490290B2402244A2
:10060000924402494101828001114AC852C456C233
:1006100006CE22CC26CA4EC6FD47AA8A2E89328A29
:1006200063F3B700029003A44A008544630794046F
:1006300059C489476311F40403A50A00B394240143
:100640001305050AEF10003E33E4A40063160A0008
:1006500093C4F4FF33F4A40003A50A00A285130594
:10066000050AEF10E03B03A50A001305050AEF1089
:10067000603B63078508029061A083A70A00935935
:1006800049008A099387070A9374F900BE993314C5
:1006900094004E854204EF10403C4184631F0A00E1
:1006A0001344F4FF698C420441804E85A285EF100B
:1006B000603A4E85EF10603A6DBF498CEDB783A765
:1006C0000A00935939008A099387070A1379790038
:1006D000BE99B39424014E85E204EF10A03BE1845F
:1006E00063190A0293C4F4FFE98C93F4F40F4E8566
:1006F000A685EF10C0394E85EF10C039E31D95F681
:10070000F2406244D2444249B249224A924A0561C7
:100710008280C98CD9BF8347050699C708418546A1
:10072000114689456F1060378280011106CE22CCB8
:1007300026CA2A844AC84EC652C4B684AE893289B3
:10074000EF00007B2A8A13064006814513058400CA
:10075000EF10707F060923203401232224014E85E7
:100760008146130600049945EF1020330840854662
:10077000130600049945EF104032084093D6240038
:10078000858A130600089D45EF102031084093D656
:100790001400858A09468545EF102030084093F6FD
:1007A000140005468145EF10402F08404C403105AC
:1007B000EF10E02D08404C407105EF10402D6244D1
:1007C000F240D2444249B2495285224A05616F0043
:1007D0004073797122D426D22A842EC632C436C2FE
:1007E0003AC006D6EF00C0708347C400AA8402470F
:1007F00092462246B24581E785472306F4008547A5
:100800005CD8230AE400784886052305F4060CC466
:100810002322040210CC54CC232004026314F704D6
:10082000A304E4060347840685476318F7000840DD
:10083000814621468D45EF10402608401105EF10F6
:100840006025A30FA1008347F101228593F7F70FDD
:10085000A30FF100EF00307A2254B2502685925453
:10086000456145A508408546130600029545EF10F1
:10087000C0224DBF011106CE22CC2EC62A848D2D5A
:10088000B2450CDCBD2D85474858E30FF5FEF2401C
:10089000624405618280411106C622C426C22A84B0
:1008A000812DAA840840854611468945EF10E01E37
:1008B000854726852300F406A92522852244B240D7
:1008C000924441016F003073011122CC2A84084107
:1008D00006CE26CA1105EF10E01BA307A10083472F
:1008E000F1001307000793F7F70F6389E736636C8E
:1008F000F70E130780036385E728636DF7066147EA
:100900006389E724636FF70221476386E71E414747
:100910006383E71E08408146130600029545EF10E9
:10092000C017585823060400232204048547631483
:10093000F70089475CD8784885476312F7208947D4
:10094000B9A6130780026386E72013070003084057
:100950006386E70013070002E39EE7FA85464146F7
:100960009145EF10801389475CD823060400228547
:100970005D33F1A21307000508406389E728636926
:10098000F700130700046388E72413078004E9B71E
:10099000130700066384E72C13078006638DE72A9C
:1009A00013078005E398E7F61C5804542105BE940C
:1009B000EF10400E2380A40083474401858B23045D
:1009C000F406639607260840854641469145EF1098
:1009D000C00C22858933854723060400232A04029C
:1009E000639F0714F1AA1307800A6386E70663660C
:1009F000F704130780086381E7246365F702130790
:100A00008007638AE72413070008E395E7F03C4476
:100A10006381072A38487C44636DF7268146114676
:100A200089459DA2130780096388E7201307000A00
:100A30006384E72813070009C9BF1307000C638309
:100A4000E70A6365F7081307000B6386E7001307DF
:100A5000800BE391E7EC8347F1001307800A6319E9
:100A6000F7020840954785442306F4002328040034
:100A700064C8130600029545EF10400411C90840F0
:100A80008146130600029545EF102001A304940649
:100A9000084078403C4021059305F00F6379F7004A
:100AA0005C5C9306170074C0BA9783C50700EF001B
:100AB000107E78403C406364F70808408146114648
:100AC0008945EF00907D2322040495A81307800D2B
:100AD0006384E7241307000E6383E7061307800C83
:100AE000E39AE7E22322040408408546114689453B
:100AF000EF00B07A09A4084081461306000295452C
:100B0000EF00B07908400C442105EF005078084010
:100B10005450054681452105EF0030785C509DE733
:100B2000232004028347940699C3A3040406834741
:100B3000A4060347C4006304F7002306F40008403A
:100B4000814621468D45EF0050759DA8232804025B
:100B5000D1BF18505C4C637EF7001C4C9306170005
:100B6000084014D0BA9783C507002105EF00307202
:100B7000F9B70347C4008D47631CF70085475CD075
:100B800085461306000295450840EF00107145BFE9
:100B90008347440123060400858B2304F40681EF78
:100BA0000840854641469145EF00306F2285A536C5
:100BB000232A040269B72285EF009047232A040202
:100BC00008401105EF00106DF2406244A307A10038
:100BD000D2440561828058548547854663E5E70025
:100BE0006316F70081461146894545B7854611468B
:100BF0008945EF00906A0840854641469145EF00DF
:100C0000D069232A04022306040015BF1C5804548B
:100C100021051387170018D8BE94EF00B067238012
:100C2000A4005C541858FD17E36BF7F0C5BB228590
:100C3000EF00104081474DB3084085461146894575
:100C4000EF00B0658347940623060400232A0404BA
:100C5000E38707EE35B78547A304F40608409147BC
:100C60002306F400232804042328040013060002AA
:100C70009545EF00B06419C908408146130600028B
:100C80009545EF0090618547A304F40685477CC82D
:100C90007DB508402105EF00F05F3C48384493865D
:100CA00017003E9734C82300A7001C48A207AA9744
:100CB0001CC838487C448DBF0347C4009147631A61
:100CC000F70430483C4C6314F6001C487CC07C4C54
:100CD000E38C07E02C44420641822285829701E59D
:100CE0002285153C09A80840814611468945EF0038
:100CF000D05A2300040683479406232A0404E3847D
:100D000007F008408546130600029545EF00F058AD
:100D1000DDBD23220404E9B778482306040023221A
:100D200004048547E315F7C489477CC889B1797104
:100D300022D44AD04ECE06D626D22E84B289368907
:100D400011E10290A54763F32701029011E302909D
:100D50009304840000C181460946854526853AC62C
:100D6000EF00904C8146054681452685EF00D04B2B
:100D7000854513050401EF00B04ACA851305C40078
:100D8000EF00104A32472285BA85EF00704981464C
:100D90006383090085462254B2500259F2492685E0
:100DA00092541146894545616F00104811E1029047
:100DB000084185460546814521056F00F04611E151
:100DC0000290084181460546814521056F00D045C6
:100DD00011E10290084111056F00D04411E1029029
:100DE00091E1029008416F00B04311E102909D47EC
:100DF00063F3D700029089676363F60002905DC1D8
:100E00009D4763E1D70A8967637EF608011152C4E2
:100E1000138A850022CC4EC62A84AE8952859375EA
:100E2000F60F06CE26CA4AC8B2843689EF0030468D
:100E300093D5544093F5857FB3E525011385C9000B
:100E4000EF00F044528523203401EF00B0449319A1
:100E50000501084093D909013105EF00B0439377AC
:100E6000750061991375F50F160533E5A9006383C5
:100E7000A40002906303F900029008404105EF00CE
:100E80007041098919E923020400F2406244D24406
:100E90004249B249224A0561828008401105EF00AB
:100EA000703FE1BF82800DE902909DED029082804B
:100EB00088404105EF00103E05897DD98345040037
:100EC00088400504EF00B03C83470400F5F3B240CE
:100ED0002244924441018280F1D9411122C426C2A8
:100EE00006C6AA842E84CDB78280F3670430828040
:100EF0007325003093070008F3B70730F377043009
:100F00008280731005308280411102C402C6B7C7C7
:100F1000000283A6C7FF36C483A687FF36C603A692
:100F2000C7FFA246E317D6FE83A5C7FF324541019E
:100F30008280411106C693070008F3B74730E937AE
:100F40009387011C83A8070003A347009387811B95
:100F5000984313085500DC433335A80001469386B7
:100F6000811BAA9563E7B7026394F50063630703E7
:100F700019C298C2DCC2B74600027D56D0C298C2E0
:100F8000DCC2092A93070008F3A74730B2404101A9
:100F90008280330617013335E6009A97AA971385A6
:100FA000011B32871041050610C1054665BF41117E
:100FB00006C6E92819671C53B240F59B1CD34101B2
:100FC0008280F32740F1FD4763F4A700029021A03F
:100FD000BD47E3FDA7FE41151375F50FB7B70080B8
:100FE0000A059387079E3E95032305000283635DF0
:100FF0000502B707008013C707FF698F01CB93C7AE
:1010000007FEE98F81E71375F50F65BF06050581BA
:10101000AD476313F50041A08D476313F50041BF51
:101020009D476310F50231B7F3274034F32730347E
:10103000F3275030F3270034F3270030F327103420
:101040000290828001A0B7C600809387014F9386EB
:1010500006712A8763E3D7000290B7B7008003A523
:1010600007221386014F2A9793870722636EC700D2
:1010700037C60080130606716368E60098C39C4378
:1010800063F3F600029082807D55D5BF411129455A
:1010900006C64D3F828082808280828082808280EC
:1010A0008280828082808280D5B7828082808280A6
:1010B000411106C622C49387011F13070003238032
:1010C000E700A380A7002381B700138501430147F0
:1010D0008D461386011FC145EFF0AFEF1385014325
:1010E0008145EFF02FF9B240224423A4A11C410115
:1010F000828041119317850021815D8D06C622C42F
:101100001387011F26C22310A7002301B7001385F0
:10111000014301478D461386011FC145EFF06FEB78
:10112000138501438145EFF0EFF423A4A11C138440
:10113000811C19CDB7B500802A86938505A2138539
:101140000123EF10C06A938501231385C11CA13BC5
:101150000840B2402244924441018280411122C49D
:101160001385411D0146914506C626C2EFF0CFC941
:101170008146138501434146B7450070EFF0EFDA31
:101180001385411D01469D45EFF00FC80146A54559
:101190001385411DEFF04FC713054006EF00E06CCB
:1011A00005469D451385411DEFF00FC6130540060A
:1011B000EF00A06B0546A5451385411DEFF0CFC498
:1011C00013054006EF00606A1385411D05469145F1
:1011D000EFF08FC32244B240138501439244410192
:1011E0006FF06FEB411185450D6506C622C426C21E
:1011F0000D640137914513058401E53D9305A00C6D
:1012000013050403FD35A14513051403DD358145A0
:1012100013052403F93D9305C00413054403D13D90
:10122000914513055403F135930500031305C402DA
:10123000C93581451305D4026D3D81451305E4028E
:101240004D3DBD451305F4026D359305000B1305A7
:1012500044074535814513055407613D9305100B3F
:101260001305E408793581451305F40859359305CC
:10127000000713056407B53DA14513057407953DA7
:101280009305000713050409AD35A145130514099D
:101290008D359305000713058430A13DA145130545
:1012A0009430813D81451305640CA13581451305BA
:1012B000740C813581451305E40C253D81451305EA
:1012C000F40C053D930500021305840D1D35C94539
:1012D0001305940D393D81451305C404193D81451D
:1012E0001305E404393581451305F40419358145A6
:1012F00013050405FD3B81451305640BDD3B81456A
:101300001305740BFD33A14513056411DD338145CD
:1013100013057411F93B930500021305041AD13B20
:10132000BD451305141AF133930520041305C400B9
:10133000C9339305E0021305D400653B9305000B08
:101340001305C4147D3381451305D4145D338945D9
:101350001305A415793B9305F00813058416513B3A
:101360009305E0071305A416693385451305E419B1
:101370004933814513059419AD3B81451305D419B3
:101380008D3B8D451305D41DAD33814513050430C8
:101390008D339305F00F1305C441A13B854513051B
:1013A000D4419164B9338D45138514A099339305C5
:1013B000F007138584A1353B8145138594A1153B26
:1013C000930570031385A4A12D3381451385B4A122
:1013D0000D33930570031385C4A1213B814513850B
:1013E000D4A1013B9305700F1385E4A11933814506
:1013F0001385F4A1FD399305F003138504A2D539B3
:101400008145138514A2F5319305F006138504A2D6
:10141000CD318145138514A2E9399305F003138575
:1014200004A2C1398145138514A2E1319305F00569
:10143000138504A27D398145138514A25D39930576
:10144000F002138504A275318145138514A255312C
:10145000894513058407713981451305940751396E
:1014600081451305A407713181451305B407513136
:10147000894513050408B5398145130514089539C4
:10148000814513052408B53181451305340895318C
:10149000894513058408B1398145130544099139FB
:1014A000814513055409B131814513056409913112
:1014B00089451305B409353981451305C409153922
:1014C00081451305D409353181451305E4091531EA
:1014D00081451305440A313981451305540A1139F0
:1014E0009305100213058428293189451305A42882
:1014F0000931954513054441ED3EE145130564412D
:10150000CD3EB9451305C45AED36854513058464AF
:10151000CD3691451305A464E93E91451305C46495
:10152000C93E854513058467E93693051003130505
:10153000C467C136930510031305E4675D3E894512
:10154000130584707D368545130544715D368945E4
:1015500013055471793E894513056471593E8945D7
:101560001305747179369305D0031305C471513690
:101570009305F0031305D471AD3E81451305C47284
:101580008D3E81451305D472AD3693056004130575
:10159000E472853681451305F472A13E93059008E7
:1015A00013050473B9368145130514739936A145A3
:1015B000130524733D3E8545130534731D3E930585
:1015C000E00F1305447335369545130554731536EE
:1015D00081451305D475313E81451305E475113EEF
:1015E000930510061305F4752936994513050476FD
:1015F0000936ED4513058476ED3CED4513059476EB
:10160000CD3CE9451305A476ED34E5451305B476E4
:10161000CD34E1451305C476E93CD1451305D476B4
:10162000C93CBD451305E476E9348145130564776B
:10163000C9348145130574776D3C93056004130527
:101640008477453C8145130594776534A14513059E
:10165000A477453485451305B477613C9305500460
:101660001305C477793485451305D4775934930528
:1016700030021305E477B53C89451305F477953CB2
:101680009305900D13050478AD348D45130514783A
:101690008D349305500F13052478A13C994513050B
:1016A0003478813C9305500A130544789934BD453C
:1016B000130584783D3C9305900D1305A478EFF055
:1016C0005FA38D451305B478EFF0BFA29305B00E6C
:1016D0001305C478EFF0FFA195451305D478EFF01A
:1016E0005FA1930570081305E478EFF09FA099457A
:1016F0001305F478EFF0FF9F9305500F130504795D
:10170000EFF03F9F9305300413052479EFF07F9E9F
:101710009305A00713054479EFF0BF9D9305100AC8
:1017200013056479EFF0FF9C930570031305047BA8
:10173000EFF03F9CB945138544E0EFF09F9B930584
:1017400000031305840EEFF0DF9A81451305940E14
:10175000EFF03F9AB945138544E0EFF09F9981453A
:1017600013052400EFF0FF981305803EFD28224466
:10177000B240924481450D6541016FF09F97411140
:1017800022C40D6493F5F50F1305840E06C6EFF021
:101790003F921305940E2244B240814541016FF0FF
:1017A0003F91B70700602380A7008280B7070060E1
:1017B0002382A7008280B70700602384A70082806D
:1017C000B70700602386A7008280B70700602398D0
:1017D000A70082802E86B7050060938505046F0000
:1017E000706841111385014306C6EFF0EF8DB240DA
:1017F000014541018280938701436397A700B707A2
:101800000001F3A747308280411122C4B7B50080A0
:10181000938545A41385012306C6EF102002938506
:1018200001232244B2401385C11C41016FF0AFE790
:10183000938701436397A700B7070001F3B74730C9
:101840008280411122C4B7B50080938545A41385D9
:10185000012306C6EF00907E938501232244B24007
:101860001385C11C41016FF00FE4411106C622C46B
:10187000EF005040B7B7008083A507AAEF0090168D
:10188000EF00304CB7B7008003A687AA83A6C7AA8B
:10189000B12EEF00700FAA851385C11DEFF00FD494
:1018A0001385C11DEFF08FD01385C11DEFF04FD20E
:1018B00065FD1385C11D2244B24041016FF02FD058
:1018C000411122C44AC006C626C2130710042E893D
:1018D000328485476377A7009337B504FD17C207A5
:1018E000C18703570400BA97C207C18311476360D9
:1018F000F70495472310F40083560400B7B5008021
:101900002A86938505A513850123EF00506E9385E4
:1019100001231385C11CEFF00FD983550400224425
:10192000B24092441375F90F0249410189BD130772
:101930005009E371F7FC930760096DBF011126CAD6
:1019400085461385C11C6946B765007006CE22CC5A
:10195000EFF0AFC937B60080B7B50080130646A6D2
:10196000938505A713850123EF00706893850123F4
:101970001385C11CEFF02FD3B7070001F3A7473041
:1019800037877D011307078481460546B735007008
:101990001385C11DEFF0AFB9EFF02FD50946B7554C
:1019A00000701385411DEFE01FBAB7B50080938525
:1019B00005A813850123EF00706893850123138523
:1019C000C11CEFF04FCEEFF06FF90945EFF09F81AA
:1019D0001305E003EFF09FDD1305A002EFF0BFDD7C
:1019E00013054003EFF0DFDD3145EFF01FDE054565
:1019F000EFF03FDB930700052315F1003724FD00CE
:101A0000130540069D35680091450146EFF09FDCC7
:101A100032451306A1008945335585025535CDB7AA
:101A20000CC1828008418280368E331EBE00337E18
:101A3000CE0003230500B28393C3F3FF3373730017
:101A40003363C3012320650082800841718D3355C3
:101A5000B50082802310B5008280031505008280C6
:101A6000368E331EBE00337ECE0003130500B283D4
:101A700093C3F3FF337373003363C3012310650013
:101A8000828003150500718D3355B50082802300D7
:101A9000B5008280030505008280368E331EBE00AD
:101AA000337ECE0003030500B28393C3F3FF337389
:101AB00073003363C30123006500828003050500C2
:101AC000718D3355B50082807350003073504030B3
:101AD00097E0FFFF93800053B7C200029382C2FFDA
:101AE00023A00200F322103093F21200639402024A
:101AF000F322503093F232000543639D6200F322DB
:101B0000503093F2C2FF17E3FFFF1303E34F6398D4
:101B1000620439A097E2FFFF9382024F7390523024
:101B20001797000013070770979700009387876F38
:101B300017980000130808706308F7006386070110
:101B400097000000E780600897A10000938181ED75
:101B5000012817B100001301E13B6FE07F9E029066
:101B600086829387011F1388014F638307013528FD
:101B70009387011B1388011F638C07013D20938706
:101B8000014F17B800001308E8B863830701312834
:101B900013870181938701811388011B6305F70077
:101BA000638307010D2096808280636FF802B3681B
:101BB000F80093F838006349100323A00700910749
:101BC000E3CD07FF82806361F802B368F80093F801
:101BD0003800634B10018328070023A017019107E9
:101BE0001107E3CA07FF11A001A08280397193D7C2
:101BF000450122DC26DA4ED6AA841394C50006DEFF
:101C00004AD852D456D25AD05ECE13F5F77F3180DF
:101C100093D9F501630705109307F07F6307F51467
:101C200093DAD4010E0433E48A00B70A8000139BD0
:101C30003400B36A5401130915C08144814B13D792
:101C400046011394C6001377F77F318013DAF6014B
:101C500059CB9307F07F630FF702931734001354A7
:101C6000D601C18F130717C0370480005D8C13188D
:101C700036003309E9408146BD47B3C5490163E3F6
:101C8000971A179700001307E7E28A04BA949C405A
:101C9000BA9782873368C400130919806312081049
:101CA00093E4240001448946C1BF1307F07F8147B4
:101CB0000144B2072285F25062545207B183FE05F7
:101CC000D98FCD8FD2544259B259225A925A025BBF
:101CD000F24BBE852161828081451307F07FB707F3
:101CE00008000144F9B73368C4006306080A6308B2
:101CF0000430228532C4EF00900F2246930555FF31
:101D0000F546130785FF8D8EB317E400B356D60052
:101D100033E4F6003318E6004A951309353F81464F
:101D2000A1BFB36A940063830A0636C632C4630750
:101D3000042A2285EF00B00B2246B2462A891307F7
:101D400055FFF54A130B89FFB38AEA403314640147
:101D5000B3DA5401B3EA8A00339B64011305D0C09F
:101D6000330925418144814BD9BDB36A94006398FE
:101D70000A00014BA1441309F07F894BC9B5268B9A
:101D8000A28AB1441309F07F8D4B55BD014B91449C
:101D90000149854B6DB593E4140001448546E9BDC6
:101DA00093E4340032888D46C1BD6309072E854710
:101DB000998F9306800363DCF63201478147014423
:101DC000CDBDD2858947E382F6EE8D47E386F6F0F6
:101DD0008547E384F6FE1307F93FE358E0FC937769
:101DE000780063960728135838009317740063D857
:101DF0000700B70700FFFD177D8C13070940930705
:101E0000E07FE3C4E7EA931794009316D40133E428
:101E10000601B1831377F77F69BDCE8556845A8852
:101E2000DE864DB763615423638D8A205A877D19FE
:101E3000014B9317840093588801B3E8F80013DE30
:101E40000801B3D7CA03939E080193DE0E0113560F
:101E5000070113138800B3FACA03B386FE02C20A4D
:101E600033665601637BD60046961385F7FF636E93
:101E70001627637CD626F9174696158E3354C6036B
:101E8000420741833376C603B3868E024206598EDB
:101E9000637BD60046961307F4FF636616256374CA
:101EA000D62479144696C207C1635D8C9387F3FFED
:101EB0003378F400135F040113550301B377F30083
:101EC000B30FF8023307D640B302FF0213D60F0157
:101ED000B30605039696B2963308AF0263F3560035
:101EE0001E98416F7D1F13D60601B3F6E601C206A8
:101EF00033FFEF014296FA966366C7126302C71278
:101F0000B306DB40118F333BDB00330B6741130714
:101F1000F93F638C68173358CB0313D60601337B24
:101F2000CB03338F0E03420B336B6601637BEB01F4
:101F3000469B1306F8FF636E1B21637CEB21791827
:101F4000469B330BEB413356CB03C206C182337B36
:101F5000CB03B38ECE02420BB3E6660163FBD60120
:101F6000C696130EF6FF63E4161F63F2D61F7916AA
:101F7000C69642083368C800131E0801935F080123
:101F8000135E0E01330FFE02B386D641330EC50336
:101F900013560F01B387FF023E9E72963305F50379
:101FA0006374F600C1673E95416E7D1E935706012E
:101FB0003376C6014206337FCF013E957A9663FDA4
:101FC000A608C6969307F8FF63E6161B63E5A618F6
:101FD0006386A61A3E881368180001B52685012D70
:101FE00013075501F145130905022246B246E3DA0B
:101FF000E5D4130485FFB39A8400014B85B3328581
:1020000032C4F523930555017147AA87224613056B
:102010000502E357B7CEE11701483314F600EDB9D6
:10202000E370DBEE1A9B33386B0046984297130837
:10203000F4FF63F8E8026365C7106301E6104284A9
:10204000C1B5E3650BDF1397FA0113561B0093DA52
:102050001A00518F7E0BF1BBE39FA6F6E30F06D665
:102060008DB7E39EE8FCE3786BFC428451BD937727
:10207000F8009146E389D7D69337C8FF110893C774
:102080001700135838003E948DB301488547E34C40
:10209000E0FE7D58E31D07D0130910C085471305E6
:1020A000E9413317A400B356F8003315A800558F43
:1020B0003335A000498F937677003354F40081CEF6
:1020C0009377F70091466388D7009307470033B7AB
:1020D000E7003A943E879317840063D907040547C5
:1020E00081470144F9B63A847DBBAA8779B3FD469E
:1020F000E3D7F6FA85563387E64013060002B35657
:10210000E4006388C7009307E943B317F40033681A
:10211000F80033370001558F13747700814719C8D1
:102120009377F70091460144E391D7FA931794000F
:10213000B18376040D83598C0147A5BEE371DBF0B2
:102140001A9B33386B0046987914429755BB7286B8
:102150000DB53288FDB39317130033B367009A9817
:10216000C69679183E83E398A6E6E308C3C61368CB
:102170001800A5B13E88E38AA6FEB1BDE36DC3FC9D
:102180003E88E316C3FE91B993D74501B706100008
:102190001387F6FF93F7F77F1306E03F2A886D8FCA
:1021A0000145FD816354F60099C182808280130647
:1021B000E0417D55E34BF6FE130530431D8D7D4612
:1021C000558F634AA6009387D7BE3317F700335560
:1021D000A800598D828013053041B307F54033556F
:1021E000F7008280797122D4135475014ECE52CCFF
:1021F0009319950006D626D24AD056CA5AC81374E7
:10220000F40F93D99900135AF50169C49307F00F9D
:102210006308F40E9397390037070004B3E9E70029
:10222000130414F88144014B13D77501939A950058
:102230001377F70F93DA9A0013D9F50145CF930777
:10224000F00F630CF7028E0A130717F8B7070004A4
:10225000B3EAFA003A94014633452A01BD47AA86FB
:102260009305140063E09710179700001307878801
:102270008A04BA949C40BA9782871304F40F639639
:102280000A0C93E424000946C1BF01451307F00F6F
:10229000B7074000B2502254A6075E07A5837E050B
:1022A000D98F92540259F249624AD24A424B5D8D0B
:1022B00045618280CA86D689328B8947630FFB08C5
:1022C0008D47E304FBFC854736856310FB1A014705
:1022D0008147C9B7639D090413D77501939A950087
:1022E0001377F70F91440144054B93DA9A0013D901
:1022F000F50131F7639D0A0093E414000546A9BF78
:1023000063920902A1441304F00F094B31BF5685B3
:10231000F92C9307B5FF098CB39AFA001304A4F8BB
:1023200001461DBFB1441304F00F0D4BF5BD4E85A2
:102330002EC6752C9307B5FF1304A0F8B399F900C6
:10234000098C8144014BB245C5B593E434000D4678
:1023500021B78947D286E315FBF636851307F00FC0
:1023600081470DBF41639306F3FF13D6090193D84C
:102370000A01B3F7D900B3FADA0033885703B389F7
:10238000F80213570801B30A5603D6994E9733063D
:102390001603637357011A96C167FD17B376F700EA
:1023A0003378F800C206C2969399660093570701E6
:1023B000B3393001E982B2979A07B3E6D900B3E99D
:1023C000D7009397490063D9070013D7190093F7F3
:1023D0001900B369F7002E841307F4076350E00473
:1023E00093F7790099C793F7F90091466383D70073
:1023F00091099397490063D90700B70700F8FD17C3
:10240000B3F9F900130704089307E00F63CBE7045F
:1024100093976900A5831377F70FADBD8547B38602
:10242000E74011C76D4601478147E345D6E61307EC
:10243000E4093397E9003337E000B3D7D900D98FE7
:1024400013F7770019C713F7F70091466303D70016
:10245000910713975700634C07009A07A58301471C
:1024600015BD1307F00F814735B52E84B5B7054765
:1024700081470DB5411106C622C415CD2A84852A8F
:102480009307E0093387A7409307600963C0E70417
:10249000A1469377F70F63D5A60061153314A40006
:1024A00026042580260413559400B2402244DE07FA
:1024B0005D8D410182800144260413559400B24091
:1024C00022448147DE075D8D410182809307900998
:1024D00063DDE7009307B5019546B317F400898ED5
:1024E000B337F0003354D4005D8C954763D6A70012
:1024F0009307B5FF3314F400B70600FCFD1693777D
:1025000074003376D40085C39377F4009145638CCF
:10251000B70011069317560063D707009307F00919
:10252000758E3387A7401314660025802604135543
:102530009400B24022449377F70FDE075D8D41018E
:102540008280135775011377F70F41119307170016
:1025500022C426C21314950006C693F7E70F258000
:102560009354F50185C79357340013070738760451
:10257000B2075207B1831395F401D98FC98FB240C6
:10258000228522449244BE854101828005EB39C4F4
:102590002285B128A94763C6A7042D47098F930751
:1025A00055013357E4003314F4009317C7001307A1
:1025B0009038098FB1831377F77F5DBF01CC135734
:1025C0003400B7070800D98FB2077604B183130728
:1025D000F07F79BF1307F07F814759BF01478147DB
:1025E00041BF130755FF3317E40001447DBFC167A6
:1025F000637EF5029307F00F1307000263ECA70058
:102600009787000093870753AA9703C507003305F0
:10261000A74082802181978700009387A751AA97BE
:1026200003C5070061473305A7408280B707000153
:10263000636EF5006181978700009387A74FAA9783
:1026400003C5070021473305A74082804181978752
:1026500000009387274EAA9703C50700414733051B
:10266000A7408280B3C7A5008D8BB308C500A1E742
:102670008D4763F2C704937735002A87A9EB13F6D9
:10268000C8FF930706FE6367F7066373C702AE864B
:10269000BA8703A806009107910623AE07FFE3EA75
:1026A000C7FE9307F6FF998FF19B91073E97BE9562
:1026B0006366170182802A87E37E15FF83C70500C2
:1026C00005078505A30FF7FEE36A17FF828083C61F
:1026D0000500050793773700A30FD7FE8505C5D3FF
:1026E00083C60500050793773700A30FD7FE85053E
:1026F000F9FF71B7944183A2450083AF850003AF12
:10270000C50083AE050103AE450103A3850103A8FF
:10271000C5019385450214C383A6C5FF2322570034
:102720002324F7012326E7012328D701232AC70101
:10273000232C6700232E070113074702232ED7FE01
:10274000E36AF7FA99B73D432A876373C302937725
:10275000F700BDEFADE5937606FF3D8ABA960CC350
:102760004CC30CC74CC74107E36BD7FE11E2828014
:10277000B306C3408A069702000096966780A600BB
:102780002307B700A306B7002306B700A305B700C9
:102790002305B700A304B7002304B700A303B700C1
:1027A0002303B700A302B7002302B700A301B700B9
:1027B0002301B700A300B7002300B700828093F580
:1027C000F50F93968500D58D93960501D58D61B74C
:1027D000939627009702000096968682E78086FAF5
:1027E0009680C1171D8F3E96E374C3F8A5B7AA8ED5
:1027F00017950000130545A335710841130E810894
:102800003ECB37030080C1771343F3FF32C536C791
:10281000938787202E86F2862C0086DE3ECA3AC930
:1028200042CD46CF76C476CC1ACE1AC872C2612089
:10283000A24723800700F6500D618280B367B50080
:102840008D8BB9EF9841B7867F7F9386F6F7B37784
:10285000D700B697D98FD58F7D56639CC7042A863B
:102860007D5811069105232EE6FE9841B377D700D7
:10287000B697D98FD58FE38607FF83C7050003C7B7
:10288000150083C625002300F60099C7A300E600C3
:1028900001C72301D60091E28280A3010600828055
:1028A000AA8703C7050085078505A38FE7FE75FB8B
:1028B00082802A86D9B741712326111E2324811EC6
:1028C0002324811D2E842EC4328C36C82322911ECF
:1028D0002320211F232E311D232C411D232A511D6E
:1028E0002328611D2326711D2322911D2320A11D54
:1028F000232EB11B2AD2EF4040011C413E853ED819
:10290000EF40E07B8357C4002AD482D982DB82DD8A
:1029100082DF93F7070889C71C4899E36F102002EC
:10292000E28C03C70C007C02BED382D782D502CCD6
:1029300002D602DC02DE82C082C202C2C14B3E8DE0
:10294000125A6309072A93065002E301D77066847E
:1029500021A06388D70A4A8483471400130914000E
:10296000EDFBB304994163870428BE562E572320FC
:102970009D01A696050723229D00B6D7BAD59D4690
:10298000210D63C4E608924703471400A6973EC290
:10299000630207267D5393041900034E1900A30315
:1029A000010C01440149A549130BA0021A8C8504AE
:1029B000F28A1307A00593870AFE6367F7169786C6
:1029C0000000938626278A07B6979C43B69782878E
:1029D0005285EF3090735C413E85BEC2EF40206E61
:1029E000AAC0AA8A5285EF3050721C453EDEE390A1
:1029F0000A6E03CE040065BF1369090203CE04000A
:102A00007DB7B3049941D9D48DB7A245D011528571
:102A1000EF40C07A0DE1130DC110B5B7A245D0113A
:102A20005285EF40A079630D0560B24789C7B24572
:102A30001255EF10904CA24783D7C70093F70704B5
:102A400099C36F10101E8320C11E0324811E1245DE
:102A50008324411E0329011E8329C11D032A811DD0
:102A6000832A411D032B011D832BC11C032C811CB8
:102A7000832C411C032D011C832DC11B7D61828091
:102A8000978700009387C7323ED693770902628307
:102A9000E1C3C2479D07E19B03AC070083AD47003C
:102AA000138787003AC89377190089C7B367BC01B9
:102AB000E39207609379F9BF8947A303010C7D571F
:102AC000630EE3663367BC0113F9F9F7E31E0732BF
:102AD000631F037E6395074813FB1900930C011BCA
:102AE000E3110B5ADA8963536B009A890347710C1F
:102AF00002C602D002CE02CA63090748850971A145
:102B0000014493860AFD85049317240083CAF4FFC9
:102B1000A29786073384F60093860AFDE3F5D9FE73
:102B200093870AFEE37DF7E863860A0C23065115B6
:102B3000A303010C8549054B930CC11491A1978700
:102B40000000938727283ED6937709026283B1F36A
:102B5000424793770901032C070011073AC8E39E07
:102B6000075293770904E3860752420C135C0C0169
:102B7000814D15BF03CE0400136949000DBD937745
:102B800009026283639E076CC2461377090193872B
:102B9000460003AC0600631C07361377090419E3EB
:102BA0006F10601D420C135C0C01814D3EC8D9A50D
:102BB000C2469377090213874600E393074E937743
:102BC000090199C36F10C00D9377090499C36F1061
:102BD000C02613790920631409006F10600CC247E6
:102BE0003AC812479C43A68C2380E70003C70C0019
:102BF000E31B07D4BE57E38007E422441255D011EB
:102C0000A285EF40A05B8357C4000DBD03CE040036
:102C10009307C006E30EFE501369090149BB03CEBA
:102C2000040093078006E30EFE4E1369090441B3C6
:102C30004247E17793C707832314F10C93074700BA
:102C40003EC8978700009387A71662833ED6032C61
:102C50000700814D936929008947930A8007B1BD18
:102C6000137789006283E3110748C247081962C6D7
:102C70009D07E19B8C43D043A1073EC8EF70101A1B
:102C80004A573243BAD95A57BADB6A57BADD7A572C
:102C9000BADF88191AC6EF307043AAC70947324312
:102CA0006314E5006F00907A05476314E5006F1028
:102CB000400F130710066394EA006F10C06C1307EF
:102CC00010046394EA006F10C03F93F7FAFD7D573C
:102CD000BEC46314E3006F10601D13077004639497
:102CE000E7006F1020737E5BCACA136709104E5F3E
:102CF000DE5DEE5E63540B006F10406182CE3A8958
:102D000002C62647930760046314F7006F10A028DB
:102D1000930750046314F7006F10C067130C010B86
:102D20009C09F8019A861308C10D0946E28552856F
:102D30001ACE7AD97ACC76DD76CA6EDB5ADFEF20EE
:102D4000B053A64713077004AA8CD24E624F724349
:102D50006384E7006F10700AD64713F7170019C392
:102D60006F10A06A7E47B30797413ECCBE4713075A
:102D700070043ECAA6476394E7006F10C015A647CB
:102D8000130760046394E7006F10E031D2479305A6
:102D9000100493F6FA0F1387F7FFA647BAC7014648
:102DA0006396B700BD0693F6F60F0546230AD10CCD
:102DB0009306B00263570700D24705479306D00237
:102DC0001D8FA30AD10CA54663C4E6006F102075C1
:102DD0001308310E428629451303300619A02E86AA
:102DE0003687B367A7029305F6FF93870703A30F00
:102DF000F6FEB346A702E344E3FE13870603137708
:102E0000F70F9306E6FFA38FE5FE63E406016F105C
:102E1000007F9305610D19A003C70600850585068F
:102E2000A38FE5FEE39A06FF1307510E9307610D8A
:102E3000118F3E97D409B307D7403EDCE247E256F4
:102E40000547338BD7006344F7006F104075A257D6
:102E50003E9BD6479349FBFF93D9F94113F9F7BF3E
:102E600013690910B3793B0102D002CE02CAF647BA
:102E700099E36F10800B1307D002A303E10C014309
:102E8000850921A2937709026283936909016398F6
:102E9000073EC24791074247814D3EC8032C0700B9
:102EA000854721B9C247A303010C628383AC0700A5
:102EB000138C4700E3850C2A7D57E30BE35E1A86EB
:102EC000814566851AC8EF40E0012AC6424319E1F0
:102ED0006F10E016B247338B97410347710C93494B
:102EE000FBFF93D9F94162C802C602D002CE02CAE2
:102EF000B3793B010143E31307C041A8937709026B
:102F0000628313690901639D0734C24791074247F1
:102F1000814D3EC8032C0700B1AE1369890003CE72
:102F2000040071B493770902628393690901639580
:102F30000736C247910742473EC8032C0700935DFE
:102F4000FC416E87634C071CFD576303F336B36780
:102F5000BC0113F9F9F7639C0734E31C03740143C4
:102F6000014B930C011BBDBE4247A303010C8549D5
:102F70001C4311073AC82306F114054B930CC114E6
:102F800002C6014302D002CE02CA937F29006383A6
:102F90000F008909937D49083E5763960D00330859
:102FA0003441634500678346710C8DC2AE561306EB
:102FB000710C2320CD000507054685062322CD0090
:102FC000BAD7B6D51D46210D6347D60863810F02D7
:102FD000AE56B0012320CD000907094685062322FD
:102FE000CD00BAD7B6D51D46210D6348D66C9306E1
:102FF0000008638DDD3E330C63416341804B937663
:10300000091063990630AE575A9723209D01850712
:1030100023226D01BAD7BED59D46210D63CBF65C48
:1030200013794900630609003309344163442005DC
:10303000635334014E849247A2973EC2E310079E29
:10304000B24782D589C7B2455285EF10006B130D88
:10305000C110A68C61BEA245D01152859AC47EDAF9
:10306000EF40C015E313059C3E57130DC1102643D6
:10307000D25FA9BFAE57178C0000130CACD663D13A
:103080002B051D4BA24A21A0411963DB2B034107ED
:10309000850723208D0123227D01BAD7BED5210DBE
:1030A000E354FBFED011D6855285EF402011E31E7C
:1030B000059641193E57AE57130DC110E3C92BFDBC
:1030C0004A97850723208D0123222D01BAD7BED52B
:1030D0009D46E3DFF6F4A245D0115285EF40000E85
:1030E000E31505943E57A9B7937709026283639469
:1030F000071AC24713770901910719C36F10804F50
:1031000013770904E302074842473EC8CA89031CF3
:103110000700935DFC416E87E35807E2330C804162
:10312000B3378001B30DB041B38DFD409307D0029A
:10313000A303F10C7D578547E316E39805476389A0
:10314000E7160947638CE718141B11A0E6869397CE
:10315000DD0113777C00135C3C001307070333EC9D
:10316000870193DD3D00A38FE6FEB367BC01938C1E
:10317000F6FFE9FF13F619006308061813060003AB
:103180006304C718F9161C1BA38FCCFE338BD740E2
:103190004E89B68C81BA9307B002A303F10C03CE1B
:1031A00004006FF0DF80C24703CE04008043910724
:1031B0003EC8635E04FE33048040136949006FF02B
:1031C0000FFF1369090803CE04006FF04FFE83CA96
:1031D00004009387140063946A016F100040938683
:1031E0000AFDBE84014C63E8D9FC850493172C00CA
:1031F00083CAF4FFE2978607338CD70093860AFDD3
:10320000E3F5D9FE6FF02FFB1369190003CE04001C
:103210006FF0EFF98347710C03CE0400639907F850
:1032200093070002A303F10C6FF06FF89377090284
:103230006283A9E7C246137709019387460003AC6E
:10324000060019C36F10003D13770904E309073026
:10325000420C3EC8135C0C01814DCA898547B1B848
:10326000C2479D07E19B03AC070083AD470013876E
:1032700087003AC89379F9BF814781B0CA89C247AC
:103280009D07E19B1387870003AC070083AD4700D0
:103290003AC885471DB0CA89C2479D07E19BD843FC
:1032A0009386870036C803AC0700BA8D61B9CA8916
:1032B000E3930D0EA547E3E0870F130C0C03A30760
:1032C000811B4E89054B930CF11A6FF0BF810547A6
:1032D000E381E73E0947CA89E398E7E6B256930CD3
:1032E000011B9377FC00B69783C707001397CD01A6
:1032F000135C4C00FD1C336C870193DD4D00238073
:10330000FC00B367BC01F1FF1C1B338B97414E8956
:103310006FF04FFD9306500663DD5621CE560C111B
:10332000081936D9DE563ADA02D136DBEE5602D328
:1033300002D536DDFE5602D736DFEF50A0195257C0
:10334000631A0538AE5797860000938666A905076D
:103350002320DD00850785462322DD00BAD7BED5B0
:103360001D47210DE34DF700BE47624763C7E700E5
:103370009377190099E33E5765B1C257A2563E575D
:103380002320FD00AE5736972322DD008507BAD7EC
:10339000BED59D46210D63CBF656E247138BF7FF52
:1033A000E35060C9AE57E3DC6B071D4CA24A21A075
:1033B000411BE3D66B07410785079786000093867C
:1033C00066A32320DD0023227D01BAD7BED5210DBF
:1033D000E350FCFED011D6855285EF30305E631687
:1033E00005E43E57AE57130DC110D9B7330C344125
:1033F000E35380C1AE5663D38B0726DAEA87E284B3
:10340000668D4E8CDA8CA2899D4D22441A8B21A0A8
:10341000C11463DD9B024107850617860000130671
:10342000669D90C323A27701BAD7B6D5A107E3D191
:10343000DDFED011A2855285EF305058631705DEAE
:10344000C1143E57AE567C02E3C79BFC4E84E28912
:10345000268CD2545A83668BEA8C3E8D6297850601
:1034600097870000938707992320FD0023228D0171
:10347000BAD7B6D51D46210DE35FD6B6A245D01109
:1034800052851ADAEF309053631105DA52533E57E2
:10349000130DC110330C6341E35380B7AE5663DFA5
:1034A0008B0526DA9D4DE2845A8C4E8BA2892244EC
:1034B00021A0C11463DF9B024107850697870000A6
:1034C000938747932320FD0023227D01BAD7B6D5E9
:1034D000210DE3D0DDFED011A2855285EF30104ED4
:1034E000631505D4C1143E57AE56130DC110E3C584
:1034F0009BFC4E84DA89628B268CD25462978506B7
:10350000978700009387078F2320FD0023228D01DA
:10351000BAD7B6D51D46210DE353D6AEA245D0117C
:103520005285EF30B049631205D03E57130DC110DC
:10353000F9B42E56E247854623209D010507130B5B
:103540001600130C8D0063DDF62885462322DD006E
:10355000BAD7DAD59D4663CE662FA257C256050B61
:103560003E972320DC002322FC00BAD7DAD59D4603
:10357000210C63CC662FCE56E24713081B0036D9C8
:10358000DE560C11081936DBEE563AD0C28A36DD0B
:10359000FE5642CE02D136DF9386F7FF36CA02D3FB
:1035A00002D502D7EF401073130D8C00D24672483B
:1035B00002576306052493871C0036972320FC00DE
:1035C0002322DC00BAD7D6D59D4763C8574F93074F
:1035D0000C01930A2B006A8C3E8DE256DC092320F5
:1035E000FC0036972322DC00BAD7D6D59D47E3D915
:1035F00057A3A245D0115285EF30503C631705C246
:103600003E57130DC11029BCCA890DBEAE56177C9A
:103610000000130C2C7D63D70B07A6C4CAC6EA872B
:103620006289668D4E8CDA8CA2899D427EDAA24434
:103630001A8B428421A0411463DB8B02410785066B
:1036400023A0270123A27701BAD7B6D5A107E3D4D7
:10365000D2FED011A6855285EF305036631705BCD7
:1036600041143E57AE567C029D42E3C98BFC228832
:10367000D25F4E84A644E2894A8C36495A83668BCF
:10368000EA8C3E8D4297850623208D0123220D0171
:10369000BAD7B6D51D46210DE357D690A245D01115
:1036A00052859AC47EDAEF307031631005B83E5708
:1036B000130DC1102643D25FFDB0A245D011528533
:1036C0001ADAEF30B02F631205B63E57130DC11052
:1036D000525331BA3E46635EC040E247D2463E8B0B
:1036E00063C2F622635F6001AE565A9723209D01A4
:1036F000850623226D01BAD7B6D51D46210D634537
:10370000D6709346FBFFD247FD86337BDB00338BBD
:10371000674163426027D24793760940B38AFC0031
:10372000639F06283E4BE2476346FB0093761900F1
:10373000638A066EC256A2571D462320DD00AE5690
:103740003E972322FD008506BAD7B6D5210DE34A60
:10375000D60CE246B387DC00338B6641B387574112
:103760005A8C63D367013E8C635F8001AE576297CA
:1037700023205D01850723228D01BAD7BED59D4642
:10378000210DE3CCF60C9347FCFFFD87337CFC0056
:10379000330B8B41E3566089AE5763D26B491D4CA6
:1037A000A24A21A0411B63DC6B474107850797763E
:1037B0000000938626642320DD0023227D01BAD7F2
:1037C000BED5210DE350FCFED011D6855285EF30D9
:1037D000F01E631C05A43E57AE57130DC110D9B798
:1037E00093751900E39305D62322DD00BAD7DAD505
:1037F0009D4763C4672D930A2600410DF9BBE35E24
:10380000D0DCE3D6DB5A9D4A368DA24C428B29A0F0
:10381000411D63DEAB51050B41079777000093878D
:10382000675D2320FC0023227C01BAD7DAD5210C66
:10383000E3D06AFFD011E6855285EF303018631669
:10384000059E3E572E5B130CC110D9B766896FF0E9
:103850006F94A245D0115285EF3050166317059C26
:103860003E572E5B130CC110CDB9A245D011528525
:10387000EF30D014631B059A3E572E5B130CC1101A
:10388000DDB993070003A307F11A930CF11A6FF047
:103890006FA593770920639F075C814D6FF0AFA000
:1038A00012469C423AC89356F64190C3D4C3A68CA4
:1038B0006FF0CFB393070003136929002304F10CC1
:1038C000A304510D9379F9BF89476FF00F9FF25709
:1038D00003CE0400638D078C83C707006389078CC0
:1038E000136909406FF0AF8CC247984391073EC8F7
:1038F0000C43504314475847AED9B2DBB6DDBADFAC
:103900006FF02FB9368BE34160DFE5BBA245D011E4
:103910005285EF30B00A631A05903E57130DC1105F
:10392000ADBC03CE14001369092085046FF02F8805
:1039300003CE14001369090285046FF04F871255F6
:1039400093050004EF20107DA24788C388CBE30CC9
:10395000054A2247930700045CCB6FE07FFC994740
:103960001A8B63EF674ADA8962C8977C0000938CF0
:10397000AC466FF0EFE0AE5663D76B459D4A224CE4
:1039800021A0411B63D16B45410785069777000055
:10399000938747462320FD0023227D01BAD7B6D561
:1039A000210DE3D0DAFED011E2855285EF3010010F
:1039B000631D05863E57AE56130DC110D9B7E247B9
:1039C000724C26CA4ADAA2C482544ECE66D0B38D57
:1039D000FC001D4B06497254EA86A249964C6305C9
:1039E0000C06ADE47D147D1CAE574A9723A09601CA
:1039F000850723A22601BAD7BED5A1066340FB0ED8
:103A000003460400B3855D41328D63D3C5002E8D1E
:103A10006350A0032E566A9723A05601050623A2E1
:103A2000A601BAD7B2D56346CB2003460400A1064F
:103A30009345FDFFFD85B377BD00330DF640634927
:103A4000A001B29AE31F0CF863880446FD1469BF15
:103A50002E5663C6AB0181A0411D63DEAB03410757
:103A60000506977700009387E7389CC223A276016A
:103A7000BAD7B2D5A106E351CBFED011CE8552857F
:103A8000EF30C07319C16FE05FFA411D3E572E56EB
:103A90007402E3C6ABFD6A9705069777000093872B
:103AA00067359CC223A2A601BAD7B2D56347CB48DB
:103AB00003460400A106B29A71B7A245D0115285FF
:103AC000EF30C06F19C16FE05FF62E563E57130DF1
:103AD0004111930A1600130CC11001B6D011CE8506
:103AE0005285EF30A06D19C16FE03FF43E5774026C
:103AF00001BFAE56977500009385852E2320BD002B
:103B00000507854585062322BD00BAD7B6D59D4554
:103B1000210D63C9D5046313061AE2479376190091
:103B2000DD8E638F06CEC256A2571D462320DD00D0
:103B3000AE563E972322FD008506BAD7B6D5930828
:103B40008D006345D634E247850623A098013E9751
:103B500023A2F800BAD7B6D59D47138D880063D14C
:103B6000D7CC41BCA245D0115285EF30206519C198
:103B70006FE0BFEB3E463E57130DC11069BFA24533
:103B8000D0115285EF30806319C16FE01FEA130D29
:103B9000C1106FF06FFD930C011B814713F90940B1
:103BA00026C64ECA130BF00FE6891ACED28CF254F9
:103BB0006E8AEA8D228D3E8419A829468146628547
:103BC000D285EF30105463080A382A8C2E8A294691
:103BD00081466285D285EF40400C13050503A38F13
:103BE000A9FE0504FD19E30A09FC83C60400E316D7
:103BF000D4FCE30464FD63140A36A54763E1873708
:103C0000668ACE8CD2491C1B22CC26DE6A84724383
:103C1000B2446E8D338B97414E896FE0BFEC97763F
:103C200000009386261D5A9785072320DD006FF03C
:103C30002FBED011CE855285EF30405819C16FE0AC
:103C4000DFDE034604003E577402DDB3CE570C118D
:103C500008193ED9DE5702D102D33EDBEE5702D51A
:103C600002D73EDDFE573EDFEF40F022634E0530C7
:103C70000347710C93067004977C0000938C4C12E0
:103C800063CF561702C602D002CE02CA1379F9F7E3
:103C90008D490D4B014319C36FE05FE66FF0EFAE46
:103CA000C247A68C9C433AC8124798C36FE01FF4E2
:103CB0006685EF30C0402A8B6FF02FA2C256A25704
:103CC0009D452320DD00AE563E972322FD0085064C
:103CD000BAD7B6D593088D0063CAD51AE35506E660
:103CE000C155330BC0406354B66E1D4CA24A21A08F
:103CF000411B63DE6B6D4107850697770000938754
:103D0000670F23A0F80023A27801BAD7B6D5A1087F
:103D1000E350DCFED011D6855285EF30204A19C120
:103D20006FE0BFD03E57AE569308C110D1B7EA86B8
:103D3000930A1B0093078C00369717760000130632
:103D4000660B2322DC002320CC00BAD7D6D59D46B3
:103D5000E3C556D7850A138D87003E8CBDB813770F
:103D60000920630307103EC8137CFC0F814DCA89EC
:103D700085476FE09FD4137709207DC3137CFC0F28
:103D8000814D3EC86FF00FCF1377092061C34247C2
:103D9000CA893EC8030C0700935DFC416E876FF033
:103DA0006F9AFE5763CD070C0347710C930670049E
:103DB000977C0000938C4CFFE3D656ED977C000077
:103DC000938CCCFEC1B55A978506977700009387F0
:103DD00067022320FD0023226D01BAD7B6D51D4608
:103DE000210DE35AD692A245D0115285EF30003D05
:103DF00019C16FE09FC33E57130DC11029BA977CBC
:103E00000000938C2CFABDBDA245D0115285EF3035
:103E1000E03A19C16FE07FC13E57130DC110D5B014
:103E2000194B91B6E246B387DC00338B6641338C85
:103E30005741E35A8B955A8CB9B2C2473AC81247D8
:103E40009C43A68C2390E7006FE05FDA4247CA8963
:103E50003EC8032C0700935DFC416E876FF08F8E88
:103E6000814D3EC86FF00FC13EC8814DCA8985475C
:103E70006FE0BFC4137CFC0F814D6FE0DFC293077E
:103E8000D002A303F10C1307D0020DB7A245D01145
:103E90005285EF30A03219C16FE03FB93E463E5720
:103EA000AE569308C110E35006CA1DBD19436FE01A
:103EB0009FE3CA896FF06FC0825CE24722DE368DD5
:103EC000B386FC00D24452592644F249E3FC56859D
:103ED000B68A6FF03F85D247755763C4E7006358D1
:103EE000F300F91A93F7FAFDBEC46FE03FEA6247A8
:103EF000D24763C5E71856473E8B058B01C722574B
:103F0000338BE700D64713F7074001C7D247634E0C
:103F1000F0509349FBFF93D9F941B3793B01930AE0
:103F2000700602D002CE6FE09FF40347710C01438C
:103F300019C36FE0BFBC6FF04F85D011CE8552859D
:103F4000EF30C02719C16FE05FAE034604003E5753
:103F50007402B29AC5BCA547E3E987C755B1864745
:103F600096450144B389F9403E864E85EF30801B6B
:103F700003C8140029468146333800016285D28582
:103F8000C294EF30101891B19307D002A303F10C43
:103F90001307D002C5B1130C010B9A86F801130860
:103FA000C10D9C090D46E28552851ACE7AD97ACC8C
:103FB00076DD76CA6EDB5ADFEF10102C83460500E3
:103FC00013070003AA8CD24E624F7243638FE658E8
:103FD0001C11BECC3E47B3096700E699E6456285F1
:103FE0001ACA7AD96EDB76DD5ADF02D102D302D546
:103FF00002D7EF40204E4E87524319E16FE0BFD603
:104000007E4713060003636437016FE0DFD5930733
:104010001700BECF2300C7007E47E36A37FF6FE07B
:104020009FD4A245D0115285EF30401919C16FE0DD
:10403000DF9F3E4B3E57130DC1106FF08FF10347CA
:10404000710C62C802D002CE02CA9A891A8B01434F
:1040500019C36FE0BFAA6FE05FF3A245D01152858C
:10406000EF30C01519C16FE05F9C3E4BE2473E57F1
:10407000130DC110338B67416FF0EFF0E247225709
:10408000930A7006338BE700D2476356F04CD6474D
:1040900013F70740631D07389349FBFF93D9F94194
:1040A000B3793B01BDBDD64713F71700D24733673D
:1040B00067006351F05063190748524B930A60063A
:1040C000F9B7930700032304F10C93078005A304B9
:1040D000F10C9367290013073006BECA02C6930C81
:1040E000C114634F67227E5B93F7FAFDBEC482CE94
:1040F000136929104E5FDE5DEE5E634B0B201307E4
:1041000010066381EA38130710046384EA006FE045
:104110005FBF130C010B62851ADA7AD976DD5ADF9C
:104120006EDBEF60E069F001EF20906E2E86AA85CD
:104130006285EF60A04E4A571C099309010A3AC9EB
:104140005A571001BE853ACB6A574E853E8B3ACD01
:104150007A57B2C6CECC3ACF3707FC3F3AC702C136
:1041600002C302C5EF40E0640A579A562A58BA5E65
:10417000CE8562853AD93AD036DB36CE42DD42CCA6
:1041800076DF76CA02D102D302D502D7EF4080345F
:10419000D24E6248F2460257525319E10546B2C761
:1041A00097770000938707C23EDA930DF3FF66CA44
:1041B000A6D0D6D2A2D6EADAD2DCE6DECAD4EE8C1B
:1041C0009AD83A8DB68D428AF68ADA84664435A04A
:1041D000A285628532D07ACE7ECC7EDB7ADD32DF7C
:1041E0004AD902D102D302D502D7EF40A02EFD1C3E
:1041F000E24F724F025641C55ACAB707034026869E
:10420000A28562853ECF6AD16ED352D556D702C9F8
:1042100002CB02CDEF40E0596285EF600021AA8514
:10422000AA8962857A5BCA5A5A5A6A59EF60C02DC8
:104230004A573646A6853AC15A5722855ACF3AC3BD
:104240006A5756C952CB3AC57A574ACD3AC7EF504A
:104250002020D2570A599A5F33873701D247034744
:1042600007002A5F3A56138B1700A30FEBFEE6C830
:10427000FD574A8DFE8D7A8AB28AE39BFCF4465341
:10428000E645CA82B70DFE3F62851ACC865416D920
:1042900096D07EDBFEC67ADD7AD032DF32CE02D116
:1042A00002D302D56ED7EF40602D965A3654565D34
:1042B000665AF65C265962436340A0088652B64FA0
:1042C000025F7246E645628516D97EDB7ADD32DF13
:1042D00002D102D302D56ED7EF40C01F624309E579
:1042E00093F91900639A0904C647930600031387DC
:1042F00017005A9763C70700050BA30FDBFEE31DEA
:1043000067FFB3079B413ECC6FE05FA602C63A89C8
:10431000370700809307D002334B6701BECEC5B389
:104320009305130052851AC6EF20C05EAA8C324353
:104330006305052E2AC645BBD2475A87BECFD25742
:104340008346FBFF03C6F700631ED60093050003F8
:10435000A30FB7FE7E479307F7FFBECF8346F7FF55
:10436000E308D6FE13861600930590031376F60F26
:104370006385B600A30FC7FE69B7D25703C6A7006F
:10438000A30FC7FEBDBF930700032304F10C9307DF
:10439000800735BB93091300130C010B1308C10DE3
:1043A0009C09F801CE860946E28552851ACE7AD953
:1043B0007ACC76DD76CA6EDB5ADFEF10E06BD24E38
:1043C000624F7243AA8C1C11E699BECC01B95A9770
:1043D0008506977700009387E7A123A0F80023A222
:1043E0006801BAD7B6D51D46A108635ED6F4A245CA
:1043F000D0115285EF20905C19C16FE00FE33E575A
:10440000AE569308C1106FF00FF41C11B3896C0005
:10441000BECCE9B6630403006FE0FF8C05436FE098
:104420009F8CFD573EC26FE00FE2930A7006F25573
:10443000D24702D003C7050002CE1306F00F630275
:10444000C7026350F70283C61500998F99C6724759
:10445000850505073ACE3687DDB78256850636D004
:10446000F9BF3ECA0257F2472EDE3E978647330712
:10447000F7023A9B9349FBFF93D9F941B3793B018A
:104480006FE0FF9E130C010B62851ADA7AD976DD94
:104490005ADF6EDBEF60C032F001EF2070372E86FE
:1044A000AA856285EF6080174A571C099309010AA3
:1044B0003AC95A571001BE853ACB6A574E853E8B92
:1044C0003ACD7A57B2C6CECC3ACF3707FC3F3AC77F
:1044D00002C102C302C5EF40C02D0A579A562A589E
:1044E000BA5ECE8562853AD93AD036DB36CE42DD29
:1044F00042CC76DF76CA02D102D302D502D7EF30A2
:10450000707DD24E6248F2460257525319E1054679
:10451000B2C7977700009387A7893EDA79B19306EF
:10452000610D19E693060003230BD10C9306710D60
:104530001C1B3386F640130707039307D60D238011
:10454000E6003EDC6FE09F8F2257930A6006338BB4
:10455000E7001A9B2DBE330BFB40050B9349FBFF75
:1045600093D9F941B3793B016DBA0C1162851ACE2A
:104570007AD97ACC76DD76CAAECC6EDB5ADF02D140
:1045800002D302D502D7EF30F074D24E624F72439D
:10459000E30205A4054733076740BAC72DBCD647D9
:1045A00013F7170019E36FE0DF8A6FE05F8AEA878D
:1045B0006FF08FF811E78549930A6006054B95B2B5
:1045C000A257930A6006138B17001A9B9349FBFFAF
:1045D00093D9F941B3793B01A9B24247032C0700B3
:1045E000110763530C007D5C03CE14003AC8BE84EF
:1045F0006FE0EFBBCA896FE01F949A89E9B38947DE
:104600003EDC6FE0BF831257B1471CC3FD573EC26B
:104610006FE06FC3CA896FE01F88A24683D7C600C8
:1046200013E70704BA872396E6006FE02FC1011154
:1046300022CC26CA4AC84EC62E8406CE938981C390
:104640002A89EF20B01483A6890005679307F7FE37
:10465000C44233848740F198269431807D1432041B
:10466000634BE40081454A85EF20502283A78900EF
:10467000A697630DF5004A85EF20D011F240624401
:10468000D2444249B249014505618280B305804068
:104690004A85EF20B01FFD57630AF5029387C14991
:1046A0009C4303A78900818C93E4140033848740E2
:1046B0004A8544C323AE8148EF20D00DF2406244C6
:1046C000D2444249B24905450561828081454A8507
:1046D000EF20D01B03A78900BD46B307E540E3DC0C
:1046E000F6F897760000938666B4944293E7170035
:1046F0005CC3158D23AEA148BDBFE9CD411122C4D5
:1047000026C22E84AA8406C6EF2050088325C4FF43
:10471000130784FF138581C393F7E5FF3306F70082
:10472000544203288500F19A6301C81254C2858956
:104730003308D600BDE9032384FF8325480093880E
:1047400001C433076740032887009A97858963016E
:10475000180F0323C7002326680023240301638363
:10476000051493E6170054C31CC29306F01F63EDB3
:10477000F6068D83938617008E064C4136951041C0
:1047800093D627408547B397D700CD8F930685FFF3
:1047900054C710C723AEF1C218C158C62244B24054
:1047A0002685924441016F20E07E8325480085895B
:1047B0009DE1B697938801C4144613E81700B3052A
:1047C000F7006389160F5046D0C614C6232207018E
:1047D0009CC161BF828093E61700232ED4FE1CC2C9
:1047E0009306F01FE3F7F6F893D697001146636C33
:1047F000D60893D6670093859603138686038E05A5
:10480000AA959441E1156383D50CD042719A63F562
:10481000C7009446E39BD5FECC464CC714C7224440
:1048200098C5B24026859244D8C641016F20807653
:104830006394050E0C465046B69793E61700D0C514
:104840000CC654C33E971CC391BF8589B69789E9AE
:10485000832584FF0D8F54471047AE9754C690C6EA
:10486000977600009386C69C13E61700944250C3C7
:1048700023A0E1C4E3E4D7F29387811E8C4326850D
:10488000EFF0FFDA21BF51466370D60213064005F0
:104890006367D60493D6C7009385F6061386E606AB
:1048A0008E05B9BFB69709BF9385C6051386B605B1
:1048B0008E05B9B723A6E1C423A4E1C423261701BA
:1048C00023241701232207019CC1C9BD4841854704
:1048D00009863396C700498E23AEC1C23DBF130679
:1048E0004015636AD60093D6F70093858607138632
:1048F00076078E0531B713064055636AD60093D606
:1049000027019385D6071386C6078E05D5BD930567
:10491000803F1306E007EDB593E6170054C31CC2B1
:10492000B5BD9306450081476905617809A88607EA
:104930002390E600C2078906C1836307D50203D727
:1049400006001376170019C293E71700058313F6C4
:104950002700B365070161DE86072390B600C20712
:104960008906C183E31DD5FC82809306850101473A
:10497000090509A806072390F6004207F9164183A6
:10498000630BD50283D7060013960701418686077D
:104990006354060013671700C207C183137627000C
:1049A00093E5170061DA06072390B6004207F9166F
:1049B0004183E319D5FC82800111416E231D010062
:1049C000231E0100E1057C08130881007D1E03D72A
:1049D0000500F917F91515E3239F07FEE39907FF73
:1049E00011069306E10103D7070009068907231F73
:1049F000E6FEE39AD7FE056182803307A70283D8DB
:104A0000270003D30700B376C701C696418393D826
:104A100006011A974697935807012391D7002390D0
:104A2000E700239F17FFE39407FB5DBF13072501F2
:104A300009058357E5FF89E7E31CA7FE014582804E
:104A400005458280411122C40354250126C206C6B1
:104A50009347F4FF13971701AA8401E7EFF01FFDB6
:104A600009E5E1773D8C23998400B24022449244C9
:104A700041018280411122C40354250106C6934797
:104A8000F4FF1397170109E7EFF05FFA814719E187
:104A90009357F400B24022443E85410182808357FF
:104AA0002501411122C4BD8326C206C64AC0B307F0
:104AB000F0402390F50083572501A166FD16F58F80
:104AC0002391F500AA84130405016387D702938715
:104AD000650023920500791579140357240089078E
:104AE000239FE7FEE31AA4FE239C0500B240224464
:104AF0009244024941018280035725012E897D8F0E
:104B00006314F702EFF09FF205C113076900231247
:104B100009009387C4FF7914835624000907231FD3
:104B2000D7FEE39A87FED9B7930749009305A901F9
:104B30008907239F07FEE39DF5FEB240224492447D
:104B4000024941018280835725015D71A2C493C748
:104B5000F7FFA6C286C613971701AA842E8401E721
:104B6000EFF0DFEC39ED8357240193C7F7FF13977C
:104B7000170121C72C002685EFF07FF24C1022850B
:104B8000EFF0FFF18355810003554102630DB5023B
:104B90009307A10013076102101083D6070089074D
:104BA000ADE6835607000907ADE2E398C7FE01456D
:104BB000B64026449644616182802285EFF01FE76B
:104BC00055D97955F5B71307A100930761028907F5
:104BD0000907133515000356E7FF83D6E7FF3305B2
:104BE000A04009897D156C18631CD600E381B7FCD1
:104BF000890709070356E7FF83D6E7FFE308D6FED8
:104C0000E3E8C6FA3305A04065B70545D5D17D5523
:104C100045B7411106C6EFF07FE1B24013351500EC
:104C200041018280411122C44AC006C626C22E8993
:104C30002A8463CD0506BD472E861105930684019F
:104C4000BD4563D12703AA87890703D70700239FA0
:104C5000E7FEE39BD7FE231C04004116E3C5C5FE17
:104C60001379F9009D4763D42703930784019305C3
:104C70002400014783D60700F91713968600518F49
:104C80002391E70013D78600E396B7FE6119630806
:104C900009007D192285EFF05FCDE31C09FEB240CB
:104CA000224492440249014541018280C557B30420
:104CB000B04063DBF5089305850101499306450083
:104CC0003D4603578401AE873369E900F91703D7DE
:104CD00007002391E700E39BD7FE23120400C114D1
:104CE000E34196FE9D4763DE97024209135909414D
:104CF000834784019305A40101473369F900420900
:104D00001359090183D70600890613D68700518FEE
:104D1000A207239FE6FE139707014183E394B6FEA3
:104D2000E11499C883578401FD142285858B33E9EA
:104D30002701EFF01FBFFDF4B240224433352001BC
:104D40009244024941018280E55763C4F50001495C
:104D5000D1BF01499306440061BF8357450041110B
:104D600026C206C622C44AC0AA84CDE30357650002
:104D7000014493170701C18763C307089306A50180
:104D80001306000A1DE39387640019A003D70700E8
:104D90008907239EE7FEE39BF6FE239C0400410463
:104DA000630FC40403D7640079DF937707F08DEBBA
:104DB00013858401938524000147AA8783D60700C1
:104DC000F91713968600518F2391E70013D78600B9
:104DD000E396F5FE03D764002104937707F0E9DF3B
:104DE0001309000A01A80504EFF03FB863498900E0
:104DF00003D76400420741872685E35607FE2285D4
:104E0000B2402244924402494101828013F707F0E4
:104E1000014405E71309F0F601A87D14EFF07FB017
:104E2000E30F24FD83D744002685E5FB2285B240AD
:104E30002244924402494101828093064500930531
:104E4000A501014719A083D7060013D68700518F0B
:104E5000A2072390E6001397070189064183E39494
:104E6000B6FE83D74400615475B7011122CC26CA1F
:104E70004AC84EC652C456C23689BE8406CE2A845B
:104E8000AE89328ABA8AEFF05FED930700093309E1
:104E9000A94063D0A706A167F91763DE2719638CC1
:104EA0000A16C8409C40638FA70A1387A401938702
:104EB00044030907231F07FEE31DF7FE9307800342
:104EC000630FF52663D6A70493070004630CF5224D
:104ED000930710076315F524B7870040FD1729478E
:104EE000DCC8E17798C4239CF400D8C4A9472167A3
:104EF000A9A063580916930700F76357F91493079D
:104F0000240069048907239F07FEE39D87FEDDA82F
:104F1000E1476309F51C930750036312F520056709
:104F2000B707000499469387F77F13070780DCC80B
:104F300094C4239CE400D4C49947A1078607A6978C
:104F40002395E70088C0634F200193070009630C95
:104F5000F516835784012285858BB3E9F900EFF0BC
:104F60005F9CC8408C4483D744011308F008139613
:104F70001500229603570600B376F7006346A80291
:104F80002D486343B8023287930584018357270075
:104F900099C393E61600231107000907E398E5FE7D
:104FA0000357060083D7440193C7F7FFF98F2310F7
:104FB000F60083D7640133F7D70005CB6389D70C9C
:104FC0001386240313078401F104814683570600E6
:104FD0008355070079177916AE97B6972311F70016
:104FE000C18393F61700E31396FE635F200B83578C
:104FF0004400BDEFA167231C0400F91763CF27010C
:1050000023112401F2406244D2444249B249224A67
:10501000924A05618280231C0400E17793C7F7FF61
:105020002311F400930744006104239007008907CB
:10503000E31DF4FEC1BF9307240069048907239F81
:1050400007FEE39D87FE7DBFCA852285EFF09FBDE9
:1050500011C1854963830A08C8409C40E397A7E4CF
:10506000EDB5E3890AF8C8409C40E310F5E4E1BDE2
:105070002285EFF01F8BA1670509231C0400F91797
:10508000E3CD27F9E35E09F623110400A5BF63957C
:10509000090ADC4403D784018607A29783D7070057
:1050A000F98F99FFE34520F5930700096305F500A3
:1050B0002285EFF09F8B83574400DDFB231C040007
:1050C000E34409FC35BF904483D744010606229689
:1050D00003570600B3F6E700C1BD231C04002311EB
:1050E00004000DB7B70780009387F70F1147DCC89E
:1050F0009307001098C4239CF400D8C49147130769
:10510000001025BD9D479CC4B7070180FD17DCC872
:105110008547239CF4009947DCC4054739BDB14756
:105120009CC4B7070180FD17DCC88547239CF400A9
:10513000AD47DCC4054711B5E3040AE87DB5B70700
:1051400080009387F70F1947DCC89307001098C4B5
:10515000239CF400D8C4994713070010F9BB797158
:105160004ECE8359250026D2AE8406D622D44AD00C
:1051700052CC328956CA5AC85EC662C466C26AC078
:105180002A8AEFF09FBD03D42400B389A940268565
:10519000EFF0BFBC930A4903098C1307E904D687D3
:1051A0008907239F07FEE39DE7FE634B3407930BBC
:1051B0004A00138B4400FD19930CAA01138C2400A0
:1051C0005A87DE878907090703D6E7FF8356E7FF7B
:1051D000631DD606E39897FF93068A01138784011F
:1051E00001468357070083D506007917918F8D8F6D
:1051F0002311F700C183F91613F61700E313ECFE31
:10520000054D5685EFF06FF68357C9047D1426854A
:10521000336DFD002316A905EFF02FF5E31234FBE3
:10522000A2862254B250F249624AD24A424BB24B51
:10523000224C924C024DCA8726850259925401474E
:105240000146814545616FF05FC2014DE3EBC6FA4F
:1052500061B7035705008357250019C32167D98F0C
:105260002399F50003572500A167FD17630FF70089
:1052700093076500C1056105890703D7E7FFF915A5
:105280002391E500E39AA7FE8280930765006905F4
:1052900003D7070089071DE3E39CA7FE13872501B9
:1052A000AE878907239F07FEE31DF7FE83D72501FD
:1052B00021677D17D98F2399F50082801387050117
:1052C000AE878907239F07FEE31DF7FEB7C7FF7F61
:1052D0009CC982807571D6DA835A2501A167FD17B2
:1052E00022C526C34AC1CEDEDAD806C7D2DCDED656
:1052F000E2D4E6D233FB5701AA842E893284B689E0
:105300006316FB08EFF08FF2631C0518035A29019E
:10531000B3774B016391671B4A85EFF02FF149E1A9
:105320002685EFF01F8F631C0518A167FD1733FA60
:105330004701420A135A0A01631DFA204A85EFF019
:105340005F8D6310052683D72401B377FA00638449
:10535000471926856C00EFF08FF44A852C10EFF08A
:105360000FF48354E1000359A102B5E01C08541066
:105370006389D720890703D7E7FF7DDB6800EFF05B
:10538000DF9DB304A0400357A10299A003DA2501D1
:1053900033F74701E31FF7FA2E85EFF02FE951D5D8
:1053A0001307490109098357E9FF0904231FF4FE84
:1053B000E31AE9FEBA402A449A440A49F659665A61
:1053C000D65A465BB65B265C965C496182804A870A
:1053D0004A8B7C10940011EF638DF61A890703D76E
:1053E000E7FF7DDB2810EFF05F970357A102330B37
:1053F000A94083578102938A8903239BE902239A58
:10540000F9021387E904D687239007008907E31D73
:10541000F7FE938BC904014A13094102930C010161
:10542000130C6104035509007919631D050E03D798
:10543000C904DE87336AEA00F91703D7070023910E
:10544000E700E39B57FF239C0902E31D99FD1387A7
:1054500049033C10930621040356070089070907F6
:10546000239FC7FEE39AF6FEF176DA948906D28589
:105470002810CE8713070004A6960146EFF0FF9E82
:10548000035781028357C100A2852810998FB33733
:10549000F000B307F0402314F102EFF09FDB19BFD7
:1054A00013874401890483D7E4FF0904231FF4FE12
:1054B000E39AE4FE01B72685EFF0AFF549CD976595
:1054C00000009385A5BA4A85EFF0EFE7630A050E61
:1054D000035A290199BD2685EFF0AFF311E54A85FE
:1054E000EFF02FF3E30705E62685EFF0AFD8AA84A7
:1054F0004A85EFF02FD83385A4403335A0003E0510
:105500002319A40013072401A2878907239F07FEFC
:10551000E39DE7FE8357240121677D17D98F231967
:10552000F40049BDD0002C10EFF00FC95E86814514
:10553000F808035506008357070079167917AA97CC
:10554000AE972311F600C18393F51700E31387FF8D
:10555000F9BD83DA2401A167FD17B3FA5701C20A26
:1055600093DA0A01E397FADE2685EFF08FEA2DFD44
:105570008357290193C7F7FF13971701E31B07DC34
:10558000B9BF930744010904231F04FEE39D87FE6E
:1055900015B5930744010904231F04FEE31DF4FE1F
:1055A00011BD97650000938565AC2685EFF0AFD9F6
:1055B00001C983D72401B377FA00E38747FB4DBFC6
:1055C00013070401A2878907239F07FEE39DE7FED7
:1055D000B7C7FF7F1CC8F9BB83572501717122D55E
:1055E00093C7F7FF26D34AD15AC906D74ECF52CD1B
:1055F00056CB5EC762C566C36AC1EEDE139717015C
:10560000AA842E893284368B09E7EFF02FC2631FFC
:1056100005288357290193C7F7FF139717012DC753
:1056200097650000938585A42685EFF0CFD155CDF1
:1056300083D9240103572901A167FD17B3F9370165
:1056400033FAE7006391F9062685EFF08FDC71C12C
:1056500063163A014A85EFF0CFDB45E19307440139
:105660000904231F04FEE31DF4FEBA502A549A5481
:105670000A59FA496A4ADA4A4A4BBA4B2A4C9A4CB6
:105680000A4DF65D4D6182804A85EFF02FBA49D907
:105690001307490109098357E9FF0904231FF4FE91
:1056A000E31AE9FED9B76308FA0626856C08EFF01D
:1056B0000FBF2C184A85EFF08FBE835BA103835484
:1056C000E101639C0B087C18930B0105638EFB269C
:1056D000890783D6E7FFFDDA2818EFF00FE8B30754
:1056E000A0403EC60356E1019DA897650000938542
:1056F000E5974A85EFF02FC505FD13070401A28742
:105700008907239F07FEE39DE7FEB7C7FF7F1CC8FD
:10571000A9BFE31C3AF94A85EFF0AFCF59D52685EA
:10572000EFF04FB5AA844A85EFF0CFB4B387A44019
:10573000B337F000BE072319F40013072401A28732
:105740008907239F07FEE39DE7FE83572401216716
:105750007D17D98F2319F40009BF5EC6268626C49B
:105760001C10541809EE6389F61E890703D7E7FF5A
:105770007DDB6808EFF06FDEB387A4403EC462575C
:10578000130D8B03EA87232AEB029304EB048907AA
:10579000239F07FEE39DF4FE2818EFF08F98035C2B
:1057A0002102C169930B0105131A0C01330A8A41C6
:1057B000930AA103FD19930CE10613096105035532
:1057C000C1038357E103CE8D42053E956368AA006D
:1057D00033558503931D050193DD0D01D0086C0839
:1057E0006E85EFF06F9D7018BC088907090603D518
:1057F000E7FF8355E6FF6316B50CE39897FF014575
:10580000EC105E868357060003D805007916898F51
:10581000B38707412311F600C183F91513F517006B
:10582000E31256FF2310BD017C18890703D6070039
:10583000239FC7FEE39B77FF23180104090DE39024
:10584000A4F981457C1893062105890703D7E7FF52
:10585000D98DE39CD7FEB335B00013074B033C183A
:105860000356070089070907239FC7FEE39AF6FE40
:10587000B24722479166FD16B38BE7402818DA87B6
:1058800013070004DE960146EFF02FDE0357810375
:105890008357C101A2852818998FB337F000B30749
:1058A000F040231CF102EFF0DF9AC1B313874401EB
:1058B000890483D7E4FF0904231FF4FEE39AE4FE7E
:1058C0006DB3E3FEA5F29387FDFF9398070193D88C
:1058D000080101454C18F0108357060003D8050055
:1058E0007916898FB38707412311F600C183F91513
:1058F00013F51700E31226FF7018BC088907090684
:1059000003D5E7FF8355E6FF6316B500E39897FFDD
:10591000C68DF5B5E3FEA5FEF91DC20D93DD0D01A3
:1059200001454C18F0108357060003D8050079167E
:10593000898FB38707412311F600C183F91513F549
:105940001700E31226FF65BD930744010904231FD6
:1059500004FEE39D87FE11BB0357C10183578103FA
:105960006303F70021662319C40013072401A287EB
:105970008907239F07FEE31DF7FE83572401216754
:105980007D17D98F2319F400CDB1797122D406D6B1
:105990002E845C001307E1018907239F07FEE39D26
:1059A000E7FE0356E50093170601C18763CA0704A3
:1059B000A167FD17231201007D8E630BF604930788
:1059C000E5002313C1001307A100F91783D60700D0
:1059D0000907231FD7FEE31AF5FE19EA2314010075
:1059E000A2854800EFF0FF86B250225445618280C4
:1059F0008547FD5548002314F100EFF0AFA2CDB765
:105A0000FD572312F100A167FD177D8EE319F6FA09
:105A1000AA879306E50003D70700890731E3E39CD3
:105A2000F6FE13074401A2878907239F07FEE39D23
:105A3000E7FE13072401A2878907239F07FEE39D42
:105A4000E7FE8357240121677D17D98F2319F400BE
:105A50008317E500E3DA07F82285EFE0BFFE69B7B8
:105A600013070401A2878907239F07FEE39DE7FE32
:105A7000B7C7FF7F1CC88DBF83AE050003AE4500CE
:105A800003A38500CC454171832805042EDEFD5516
:105A90002320B116930500092324811E2328611DAC
:105AA0002326111E2322911E2320211F232E311D68
:105AB000232C411D232A511D2326711D2324811DC2
:105AC0002322911D2320A11D232EB11B76D872DA2B
:105AD0001ADC2322B11632C436C83ACA42D02A8B05
